S0190000536C6176655F536D6172745F486F6D655F2E7372656363
S11300000C942A000C943C000C943C000C943C008E
S11300100C943C000C943C000C943C000C943C006C
S11300200C943C000C943C000C943C000C943C005C
S11300300C9499010C943C000C943C000C943C00EE
S11300400C943C000C943C000C943C000C943C003C
S11300500C943C0011241FBECFE5D8E0DEBFCDBF19
S113006020E0A0E6B0E001C01D92A836B207E1F797
S11300700E9460000C9448030C94000061E083E348
S11300800E94F00161E080E30E94F00140E060E042
S113009089E30E94D30140E061E089E30E94D30137
S11300A041E062E089E30E94D30140E063E089E338
S11300B00E94D30141E064E089E30E94D3010895E2
S11300C00E943E000E9407020E94A801789460E00A
S11300D083E30E94B8012FE986E891E02150804033
S11300E09040E1F700C000000E94B001BC0180E034
S11300F090E00E943E0220E030E040E85EE30E948F
S1130100A4020E940F0270936600609365008091C0
S113011061008093640061E089E30E94FB0188230D
S1130120A1F061E083E30E94B8018DEE92E00197B3
S1130130F1F700C0000061E083E30E94C5018DEE89
S113014092E00197F1F700C0000063E089E30E94A8
S1130150FB018823A1F062E089E30E94B8018DEEDF
S113016092E00197F1F700C0000062E089E30E9489
S1130170C5018DEE92E00197F1F700C00000809177
S11301806400813079F462E080E30E94B8019FE961
S113019026E881E0915020408040E1F700C0000053
S11301A01092610080916400833031F464E080E354
S11301B00E94B8011092610080916400843031F48F
S11301C065E080E30E94B8011092610080916400B0
S11301D08530B1F480916000811112C064E089E33C
S11301E00E94B8019FE32DE083E0915020408040BD
S11301F0E1F700C00000DC98DC9881E080936000A7
S113020080916400853009F04CC066E080E30E9470
S1130210B80183ED90E30197F1F700C0000040912D
S11302206500509166009A01ADECBCEC0E94390364
S11302309695879596958795969587959C01220F17
S1130240331F880F991F880F991F880F991F820FDA
S1130250931F481B590B4295407F476045BB87EA73
S113026091E60197F1F700C00000209165003091FC
S113027066000E943903969587959695879596957D
S113028087958295807F8B6085BB87EA91E601978D
S1130290F1F700C000001092610081E080936200D9
S11302A005C080916200813009F01ECF83ED90E398
S11302B00197F1F700C0000040916500509166007D
S11302C09A01ADECBCEC0E943903969587959695FE
S11302D08795969587959C01220F331F880F991F48
S11302E0880F991F880F991F820F931F481B590B62
S11302F04295407F4B6045BB87EA91E60197F1F751
S113030000C0000020916500309166000E9439030E
S11303109695879596958795969587958295807FEE
S1130320876085BB87EA91E60197F1F700C000007A
S1130330DBCE1F920F920FB60F9211248F938FB1C1
S1130340809361008F910F900FBE0F901F901895AE
S113035083E086B93D9A389A80EC87B9379A089534
S1130360369A349BFECF94B185B1892B90E00895E1
S1130370E82FF0E0828121E030E002C0220F331F39
S11303806A95E2F7282B22830895E82FF0E0828112
S113039021E030E002C0220F331F6A95E2F7209576
S11303A0282322830895413069F4E82FF0E0218165
S11303B081E090E002C0880F991F6A95E2F7822BD2
S11303C081830895E82FF0E0218181E090E002C06C
S11303D0880F991F6A95E2F7809582238183089597
S11303E0613029F4E82FF0E08FEF81830895E82F3E
S11303F0F0E011820895E82FF0E0208181E090E0A0
S113040002C0880F991F6A95E2F78223089587B383
S11304108F7487BB81E48DB96F9A6C9808950E949C
S1130420830288F09F5798F0B92F9927B751B0F0FD
S1130430E1F0660F771F881F991F1AF0BA95C9F764
S113044014C0B13091F00E949D02B1E008950C9463
S11304509D02672F782F8827B85F39F0B93FCCF316
S1130460869577956795B395D9F73EF490958095E1
S1130470709561957F4F8F4F9F4F0895E89409C001
S113048097FB3EF490958095709561957F4F8F4FC3
S11304909F4F9923A9F0F92F96E9BB279395F695D9
S11304A0879577956795B795F111F8CFFAF4BB0F57
S11304B011F460FF1BC06F5F7F4F8F4F9F4F16C0BB
S11304C0882311F096E911C0772321F09EE8872F45
S11304D0762F05C0662371F096E8862F70E060E001
S11304E02AF09A95660F771F881FDAF7880F96957A
S11304F0879597F9089557FD9058440F551F59F063
S11305005F3F71F04795880F97FB991F61F09F3FFC
S113051079F087950895121613061406551FF2CF25
S11305204695F1DF08C0161617061806991FF1CF75
S113053086957105610508940895E894BB2766279C
S11305407727CB0197F908950E94B7020C942803EA
S11305500E941A0338F00E94210320F0952311F021
S11305600C9411030C94170311240C949E020E9402
S11305707B0270F3959FC1F3950F50E0551F629F66
S1130580F001729FBB27F00DB11D639FAA27F00DE8
S1130590B11DAA1F649F6627B00DA11D661F829F0F
S11305A02227B00DA11D621F739FB00DA11D621FF4
S11305B0839FA00D611D221F749F3327A00D611D11
S11305C0231F849F600D211D822F762F6A2F1124F3
S11305D09F5750409AF0F1F088234AF0EE0FFF1F26
S11305E0BB1F661F771F881F91505040A9F79E3F7D
S11305F0510580F00C9411030C949E025F3FE4F3C8
S1130600983ED4F3869577956795B795F795E795D2
S11306109F5FC1F7FE2B880F911D9695879597F9DB
S1130620089597F99F6780E870E060E008959FEF70
S113063080EC089500240A94161617061806090675
S1130640089500240A941216130614060506089544
S1130650092E0394000C11F4882352F0BB0F40F4CC
S1130660BF2B11F460FF04C06F5F7F4F8F4F9F4F0C
S11306700895A29FB001B39FC001A39F700D811D77
S11306801124911DB29F700D811D1124911D089597
S1070690F894FFCF08
S9030000FC
