S01A00004D61737465725F536D617272745F486F6D652E73726563DE
S11300000C942A000C9447000C9447000C9447006D
S11300100C9447000C9447000C9447000C94470040
S11300200C9447000C9447000C9447000C94470030
S11300300C9447000C9447000C9447000C94470020
S11300400C9447000C9447000C9447000C94470010
S11300500C94470011241FBECFE5D8E0DEBFCDBF0E
S113006011E0A0E6B0E0E6EFF9E002C005900D92E1
S1130070A435B107D9F721E0A4E5B1E001C01D9290
S1130080A736B207E1F70E949C040C94F9040C947F
S1130090000065E082E00E94750480E690E00E9422
S11300A05F0465E083E00E9475048BE690E00E94A3
S11300B05F048CE00E94FD032FEB84ED91E021505E
S11300C080409040E1F700C00000089581E00E9464
S11300D0FD0361E081E00E94750489E790E00E94DD
S11300E05F0461E082E00E9475048EE890E00E9463
S11300F05F0461E083E00E9475048DE990E00E9452
S11301005F0461E084E00E9475048CEA90E00E9440
S11301105F040E949B038E34E1F38CE00E94FD0394
S1130120089561E083E30E94E30461E080E30E94B8
S1130130E30441E060E089E30E94C60441E061E039
S113014089E30E94C60441E062E089E30E94C60498
S113015041E063E089E30E94C60440E064E089E38F
S11301600E94C60440E065E089E30E94C60440E0C2
S113017066E089E30E94C60440E067E089E30E94E8
S1130180C60441E060E086E30E94C60441E061E009
S113019086E30E94C60408950E949B038E34F9F0FE
S11301A00E949B038093550190E090935D0180939E
S11301B05C0163E184E00E947504809155010E9412
S11301C03F048FE493EC0197F1F700C000008091A5
S11301D055018153823018F081E0809354010895D1
S11301E0CF93DF9380915401882309F44AC0CCE56E
S11301F0D1E081E00E94FD0365E081E00E94750486
S113020080EC90E00E945F0465E082E00E94750447
S113021080ED90E00E945F042FE38DE093E0215095
S113022080409040E1F700C000000E9466002FE388
S11302308DE093E0215080409040E1F700C0000041
S11302400E949B038E34E1F30E949B0390E0909301
S11302505D0180935C01C197029710F410925401E0
S113026063E184E00E94750488810E943F048FE466
S113027093EC0197F1F700C00000809154018111C3
S1130280B8CFDF91CF91089580915C0190915D0189
S1130290C19709F04BC081E00E94FD0361E081E059
S11302A00E9475048BED90E00E945F0461E082E09F
S11302B00E94750489EE90E00E945F0487EA91E64B
S11302C00197F1F700C0000060E182E00E9475042C
S11302D081E08093560110925E010E949B038E344C
S11302E0E1F30E949B0390E0C09790935D0180939B
S11302F05C01805D0E943F04E0915E01F0E0EE0F3E
S1130300FF1FE15AFE4F80915C0190915D01918342
S113031080838FE493EC0197F1F700C00000809193
S11303205E018F5F80935E018430B8F2EFE5F1E007
S11303302681378188EE93E0289FA001299F500DE4
S1130340389F500D11242481358164E6629FC001D9
S1130350639F900D1124480F591F82819381BC0122
S1130360660F771F9C01220F331F220F331F220FAA
S1130370331FCB01820F931F840F951F208131817E
S1130380820F931F909359018093580187EA91E655
S11303900197F1F700C000000895809158019091F1
S11303A0590187359440D9F580915701811137C09F
S11303B081E00E94FD0364E083E30E94B90461E0EC
S11303C081E00E9475048AEF90E00E945F0461E07E
S11303D082E00E9475048FE091E00E945F046CE06B
S11303E082E00E94750488E191E00E945F0461E06C
S11303F083E00E94750481E291E00E945F046CE056
S113040083E00E9475048AE291E00E945F0461E047
S113041084E00E94750480E391E00E945F040895E3
S11304200E949B038E34E1F30E949B0390E0C097EB
S113043090935B0180935A010197A1F481E090E0CD
S11304400E94F50463E184E00E94750480915A01DE
S113045090915B010E94980487E893E10197F1F77A
S113046000C0000080915A0190915B010297B1F4A1
S113047082E090E00E94F50463E184E00E94750448
S113048080915A0190915B010E94F5040E949804A6
S113049087E893E10197F1F700C0000080915A01C9
S11304A090915B010397B1F483E090E00E94F5041E
S11304B063E184E00E94750480915A0190915B018C
S11304C00E94F5040E94980487E893E10197F1F7EC
S11304D000C0000080915A0190915B010497B1F42F
S11304E084E090E00E94F50463E184E00E947504D6
S11304F080915A0190915B010E94F5040E94980436
S113050087E893E10197F1F700C0000080915A0158
S113051090915B010597B1F485E090E00E94F504A9
S113052063E184E00E94750480915A0190915B011B
S11305300E94F5040E94980487E893E10197F1F77B
S113054000C00000089580915801909159018E3A9D
S1130550984011F581E00E94FD0381E00E94FD03B3
S113056065E083E30E94B90461E081E00E947504C0
S11305708AEF90E00E945F0461E082E00E947504CB
S11305808AE291E00E945F0461E083E00E947504C6
S113059080E391E00E945F040E949B038E34E1F3A8
S11305A00E949B0390E0C09790935B0180935A0153
S11305B0089580915C0190915D01C29709F04BC050
S11305C081E00E94FD0361E081E00E9475048BEDEF
S11305D090E00E945F0461E082E00E94750482E47E
S11305E091E00E945F0487EA91E60197F1F700C069
S11305F0000060E182E00E94750481E0809357016D
S113060010925E010E949B038E34E1F30E949B03CF
S113061090E0C09790935D0180935C01805D0E949F
S11306203F04E0915E01F0E0EE0FFF1FE15AFE4F40
S113063080915C0190915D01918380838FE493ECC0
S11306400197F1F700C0000080915E018F5F8093F5
S11306505E018430B8F2EFE5F1E02681378188EE5F
S113066093E0289FA001299F500D389F500D11241D
S11306702481358164E6629FC001639F900D11243B
S1130680480F591F82819381BC01660F771F9C011B
S1130690220F331F220F331F220F331FCB01820F70
S11306A0931F840F951F20813181820F931F909394
S11306B059018093580187EA91E60197F1F700C048
S11306C00000089580915A0190915B010497B1F460
S11306D084E090E00E94F50463E183E00E947504E5
S11306E080915A0190915B010E94F5040E94980444
S11306F087EA91E60197F1F700C0000080915A0162
S113070090915B010597B1F485E090E00E94F504B7
S113071063E183E00E94750480915A0190915B012A
S11307200E94F5040E94980487EA91E60197F1F784
S113073000C00000089581E08BBB89EF90E0019731
S1130740F1F700C00000CC9938C0CD9938C0CE99DB
S113075038C0CF9938C082E08BBB89EF90E0019715
S1130760F1F700C00000CC9930C0CD9930C0CE99CB
S113077030C0CF9930C084E08BBB89EF90E0019703
S1130780F1F700C00000CC9928C0CD9928C0CE99BB
S113079028C0CF9928C088E08BBB89EF90E00197EF
S11307A0F1F700C00000CC9920C0CD9920C0CE99AB
S11307B020C0CF9920C08EE4089587E3089588E38C
S11307C0089589E308958FE2089584E3089585E305
S11307D0089586E308958AE2089581E3089582E303
S11307E0089583E308958DE2089583E4089580E3F2
S11307F008958DE308958BE20895AE98982F907F25
S113080092BBAE98AF9AE9EFF0E03197F1F700C0F0
S11308100000AF98F1E2FA95F1F700008295807F2D
S113082082BBAF9A89EF90E00197F1F700C0000016
S1130830AF9891E29A95F1F700000895AF98A69ABF
S1130840A79A12BAAF9881B3807F81BB83E30E94D9
S1130850FD0382E30E94FD0388E20E94FD038EE013
S11308600E94FD0381E00E94FD0383EF91E0019764
S1130870F1F700C0000086E00E94FD030895AE9ADF
S1130880982F907F92BBAF9AE9EFF0E03197F1F7A0
S113089000C00000AF98F1E2FA95F1F700008295EC
S11308A0807F82BBAF9A89EF90E00197F1F700C097
S11308B00000AF9891E29A95F1F7000008950F9324
S11308C01F93CF93FC018081882359F08F01C0E0EE
S11308D00E943F04CF5FF801EC0FF11D808181116C
S11308E0F7CFCF911F910F910895CF93DF9300D04D
S11308F000D0CDB7DEB790E8998390EC9A8394E961
S11309009B8394ED9C83FE01E80FF11D615080816F
S1130910860F0E94FD0387EA91E60197F1F700C074
S113092000000F900F900F900F90DF91CF910895DA
S1130930805D0E943F0408950E9491000E941E045D
S11309400E94EE040E9449000E9466000E94CC00AE
S11309500E94F0000E9444010E94CD010E941002F6
S11309600E94D9020E94A3020E9462030E946600B0
S1130970EDCFE82FF0E0828121E030E002C0220FC9
S1130980331F6A95E2F7282B22830895413069F4D6
S1130990E82FF0E0218181E090E002C0880F991FE8
S11309A06A95E2F7822B81830895E82FF0E0218194
S11309B081E090E002C0880F991F6A95E2F7809564
S11309C0822381830895613029F4E82FF0E08FEFCA
S11309D081830895E82FF0E01182089580EB87BBAE
S11309E0BE9887BB81E58DB908958FB9779BFECFFB
S10909F00895F894FFCF06
S11309F657656C636F6D6520696E00736D61727403
S1130A0620686F6D65203A290041726520796F75FB
S1130A162041646D696E2F47756573743F004164A8
S1130A266D696E2070726573733A2031004775657F
S1130A3673742070726573733A203200456E746560
S1130A467220596F75722043686F6963653A200096
S1130A5657726F6E672043686F696365203A280092
S1130A6654727920416761696E2000506C65617328
S1130A766520456E74657220005468652041646D76
S1130A86696E20706173733A2000436F6E74726FDF
S1130A966C204279205072657373204E756D005236
S1130AA66F6F6D313A203100526F6F6D323A2032DA
S1130AB600526F6F6D333A20330054563A20340097
S1130AC641697220436F6E646974696F6E65723A28
S1130AD635005468652047756573742070617373B7
S1070AE63A200000AE
S9030000FC
